:10000000E0C0189518951895189518951895189595
:10001000189518950AB700640ABF0AB7102F16FF83
:10002000FCCF0AB700640ABFB09904C006B3E02E43
:1000300001E0089500E008950AB700640ABF0AB716
:10004000102F16FFFCCF0AB700640ABFB09B04C094
:1000500006B3E02E01E0089500E00895FF2400E0DB
:1000600007BB0EEF08BB05B7036005BF00E40BBF7D
:1000700006B3E02EBA9AC29802C006B3E02EB39936
:100080000FC00FEF19EC28E0015010402040E1F7BD
:1000900000C00000FF2011F0FF2402C0FF24F394F1
:1000A000FF2069F306B3E01651F306B30370023084
:1000B00021F7E0FA16F7AEDF002309F7BDDF0023D2
:1000C000F1F6BADF0023D9F6B7DF0023C1F6A2DFCD
:1000D0000023A9F69FDF002391F6AEDF002379F617
:1000E000ABDF002361F6A8DF002349F6A5DF00237C
:1000F00031F690DF002319F69FDF002301F68ADF37
:10010000002309F0BCCF98DF002309F0B8CF94DFBB
:10011000002309F0B4CF90DF002309F0B0CF8CDFCB
:10012000002309F0ACCF88DF002309F0A8CF72DFED
:10013000002309F0A4CF6EDF002309F0A0CF7CDFFD
:10014000002309F09CCF66DF002309F098CF74DF0D
:10015000002309F094CF04E018B3102718BB04E083
:1001600018B3102718BB05B70C7F05BF05B7026091
:1001700005BFC098B89A0AB700640ABF0AB7102F23
:1001800016FFFCCF0AB700640ABF0AB7102F16FF8C
:10019000FCCFC09A0AB700640ABF0AB7102F16FF37
:1001A000FCCF04E018B3102718BB04E018B31027E5
:1001B00018BB05B7036005BFB89861CF00008895EC
:1001C000FECF0FE90DBFC0E803D048DFF7DFF6CF61
:0401D00001E00895AD
:00000001FF
:00000001FF
