:10000000B9C01895189518951895189518951895BC
:100010001895189516D00AB706FFFDCF12D0B09BE1
:1000200002C000E008950AD001E008950AD00AB79E
:1000300006FFFDCF06D0B099F6CFF3CF06B3E02E82
:1000400008950AB700640ABF0895FF24F7BA0EEFB7
:1000500008BB05B7036005BF00E40BBFEFDFBA9A2A
:10006000C298BC9A72C0FF24F394C49803C0FF20C6
:1000700009F45CC006B3E01609F458C006B3037077
:10008000023009F064C0E0FA0EF061C06ED009F0F1
:100090004DC068D009F04AC065D009F047C062D0B1
:1000A00009F044C062D009F041C05FD0F9F55AD0E0
:1000B000E9F558D0D9F556D0C9F554D0B9F555D091
:1000C000A9F550D099F551D089F54CD079F54AD0A1
:1000D00069F548D059F546D049F544D039F545D0B1
:1000E00029F543D019F53ED009F53FD0F9F43AD0BF
:1000F000E9F4C098B89AA5DF0AB706FFFDCF29D06A
:100100000C7F05BF05B7026005BF9BDF0AB706FF7E
:10011000FDCF97DF0AB706FFFDCFC09A92DF0AB77F
:1001200006FFFDCF16D0036005BFB898B3999FCFE7
:100130000FEF19EC28E0015010402040E1F700C01B
:100140000000FF2009F48FCFFF24C49AEFCF76DFA1
:10015000EDCF04E018B3102718BB18B3102718BB55
:1001600005B7089563DF0023089554DFFCCF000036
:100170008895FECF0FE90DBFC0E803D066DFF7DF3B
:06018000F6CF01E0089536
:00000001FF
:00000001FF
